{
  "address": "0x5FbDB2315678afecb367f032d93F642f64180aa3",
  "abi": [
    {
      "inputs": [
        {
          "internalType": "uint256",
          "name": "_amount",
          "type": "uint256"
        }
      ],
      "stateMutability": "nonpayable",
      "type": "constructor"
    },
    {
      "anonymous": false,
      "inputs": [
        {
          "indexed": true,
          "internalType": "address",
          "name": "owner",
          "type": "address"
        },
        {
          "indexed": true,
          "internalType": "address",
          "name": "spender",
          "type": "address"
        },
        {
          "indexed": false,
          "internalType": "uint256",
          "name": "value",
          "type": "uint256"
        }
      ],
      "name": "Approval",
      "type": "event"
    },
    {
      "anonymous": false,
      "inputs": [
        {
          "indexed": true,
          "internalType": "address",
          "name": "previousOwner",
          "type": "address"
        },
        {
          "indexed": true,
          "internalType": "address",
          "name": "newOwner",
          "type": "address"
        }
      ],
      "name": "OwnershipTransferred",
      "type": "event"
    },
    {
      "anonymous": false,
      "inputs": [
        {
          "indexed": true,
          "internalType": "address",
          "name": "from",
          "type": "address"
        },
        {
          "indexed": true,
          "internalType": "address",
          "name": "to",
          "type": "address"
        },
        {
          "indexed": false,
          "internalType": "uint256",
          "name": "value",
          "type": "uint256"
        }
      ],
      "name": "Transfer",
      "type": "event"
    },
    {
      "inputs": [],
      "name": "DOMAIN_SEPARATOR",
      "outputs": [
        {
          "internalType": "bytes32",
          "name": "",
          "type": "bytes32"
        }
      ],
      "stateMutability": "view",
      "type": "function"
    },
    {
      "inputs": [],
      "name": "PERMIT_TYPEHASH",
      "outputs": [
        {
          "internalType": "bytes32",
          "name": "",
          "type": "bytes32"
        }
      ],
      "stateMutability": "view",
      "type": "function"
    },
    {
      "inputs": [
        {
          "internalType": "address",
          "name": "to",
          "type": "address"
        },
        {
          "internalType": "uint256",
          "name": "_amount",
          "type": "uint256"
        }
      ],
      "name": "_transfer",
      "outputs": [],
      "stateMutability": "nonpayable",
      "type": "function"
    },
    {
      "inputs": [
        {
          "internalType": "address",
          "name": "owner",
          "type": "address"
        },
        {
          "internalType": "address",
          "name": "spender",
          "type": "address"
        }
      ],
      "name": "allowance",
      "outputs": [
        {
          "internalType": "uint256",
          "name": "",
          "type": "uint256"
        }
      ],
      "stateMutability": "view",
      "type": "function"
    },
    {
      "inputs": [
        {
          "internalType": "address",
          "name": "spender",
          "type": "address"
        },
        {
          "internalType": "uint256",
          "name": "amount",
          "type": "uint256"
        }
      ],
      "name": "approve",
      "outputs": [
        {
          "internalType": "bool",
          "name": "",
          "type": "bool"
        }
      ],
      "stateMutability": "nonpayable",
      "type": "function"
    },
    {
      "inputs": [
        {
          "internalType": "address",
          "name": "account",
          "type": "address"
        }
      ],
      "name": "balanceOf",
      "outputs": [
        {
          "internalType": "uint256",
          "name": "",
          "type": "uint256"
        }
      ],
      "stateMutability": "view",
      "type": "function"
    },
    {
      "inputs": [],
      "name": "decimals",
      "outputs": [
        {
          "internalType": "uint8",
          "name": "",
          "type": "uint8"
        }
      ],
      "stateMutability": "view",
      "type": "function"
    },
    {
      "inputs": [
        {
          "internalType": "address",
          "name": "spender",
          "type": "address"
        },
        {
          "internalType": "uint256",
          "name": "subtractedValue",
          "type": "uint256"
        }
      ],
      "name": "decreaseAllowance",
      "outputs": [
        {
          "internalType": "bool",
          "name": "",
          "type": "bool"
        }
      ],
      "stateMutability": "nonpayable",
      "type": "function"
    },
    {
      "inputs": [
        {
          "internalType": "address",
          "name": "spender",
          "type": "address"
        },
        {
          "internalType": "uint256",
          "name": "addedValue",
          "type": "uint256"
        }
      ],
      "name": "increaseAllowance",
      "outputs": [
        {
          "internalType": "bool",
          "name": "",
          "type": "bool"
        }
      ],
      "stateMutability": "nonpayable",
      "type": "function"
    },
    {
      "inputs": [
        {
          "internalType": "address",
          "name": "to",
          "type": "address"
        },
        {
          "internalType": "uint256",
          "name": "_amount",
          "type": "uint256"
        }
      ],
      "name": "mint",
      "outputs": [],
      "stateMutability": "nonpayable",
      "type": "function"
    },
    {
      "inputs": [],
      "name": "name",
      "outputs": [
        {
          "internalType": "string",
          "name": "",
          "type": "string"
        }
      ],
      "stateMutability": "view",
      "type": "function"
    },
    {
      "inputs": [
        {
          "internalType": "address",
          "name": "owner",
          "type": "address"
        }
      ],
      "name": "nonces",
      "outputs": [
        {
          "internalType": "uint256",
          "name": "",
          "type": "uint256"
        }
      ],
      "stateMutability": "view",
      "type": "function"
    },
    {
      "inputs": [],
      "name": "owner",
      "outputs": [
        {
          "internalType": "address",
          "name": "",
          "type": "address"
        }
      ],
      "stateMutability": "view",
      "type": "function"
    },
    {
      "inputs": [
        {
          "internalType": "address",
          "name": "owner",
          "type": "address"
        },
        {
          "internalType": "address",
          "name": "spender",
          "type": "address"
        },
        {
          "internalType": "uint256",
          "name": "value",
          "type": "uint256"
        },
        {
          "internalType": "uint256",
          "name": "deadline",
          "type": "uint256"
        },
        {
          "internalType": "uint8",
          "name": "v",
          "type": "uint8"
        },
        {
          "internalType": "bytes32",
          "name": "r",
          "type": "bytes32"
        },
        {
          "internalType": "bytes32",
          "name": "s",
          "type": "bytes32"
        }
      ],
      "name": "permit",
      "outputs": [],
      "stateMutability": "nonpayable",
      "type": "function"
    },
    {
      "inputs": [],
      "name": "renounceOwnership",
      "outputs": [],
      "stateMutability": "nonpayable",
      "type": "function"
    },
    {
      "inputs": [],
      "name": "symbol",
      "outputs": [
        {
          "internalType": "string",
          "name": "",
          "type": "string"
        }
      ],
      "stateMutability": "view",
      "type": "function"
    },
    {
      "inputs": [],
      "name": "totalSupply",
      "outputs": [
        {
          "internalType": "uint256",
          "name": "",
          "type": "uint256"
        }
      ],
      "stateMutability": "view",
      "type": "function"
    },
    {
      "inputs": [
        {
          "internalType": "address",
          "name": "to",
          "type": "address"
        },
        {
          "internalType": "uint256",
          "name": "amount",
          "type": "uint256"
        }
      ],
      "name": "transfer",
      "outputs": [
        {
          "internalType": "bool",
          "name": "",
          "type": "bool"
        }
      ],
      "stateMutability": "nonpayable",
      "type": "function"
    },
    {
      "inputs": [
        {
          "internalType": "address",
          "name": "from",
          "type": "address"
        },
        {
          "internalType": "address",
          "name": "to",
          "type": "address"
        },
        {
          "internalType": "uint256",
          "name": "amount",
          "type": "uint256"
        }
      ],
      "name": "transferFrom",
      "outputs": [
        {
          "internalType": "bool",
          "name": "",
          "type": "bool"
        }
      ],
      "stateMutability": "nonpayable",
      "type": "function"
    },
    {
      "inputs": [
        {
          "internalType": "address",
          "name": "newOwner",
          "type": "address"
        }
      ],
      "name": "transferOwnership",
      "outputs": [],
      "stateMutability": "nonpayable",
      "type": "function"
    }
  ],
  "transactionHash": "0x0bf2d2f35e7d4701ca0687d2ffe4e3de9287e58fa61ac02d99405ad9ee77b4ea",
  "args": [
    1000
  ],
  "numDeployments": 1,
  "solcInputHash": "ce56a352f67e88dcd0c0ce8800a0e81f",
  "bytecode": "0x6101406040523480156200001257600080fd5b506040516200319d3803806200319d8339818101604052810190620000389190620005b6565b6040518060400160405280600481526020017f4755535400000000000000000000000000000000000000000000000000000000815250806040518060400160405280600181526020017f31000000000000000000000000000000000000000000000000000000000000008152506040518060400160405280600481526020017f47555354000000000000000000000000000000000000000000000000000000008152506040518060400160405280600481526020017f4755245400000000000000000000000000000000000000000000000000000000815250816003908051906020019062000129929190620004ef565b50806004908051906020019062000142929190620004ef565b50505060008280519060200120905060008280519060200120905060007f8b73c3c69bb8fe3d512ecc4cf759cc79239f7b179b0ffacaa9a75d522b39400f90508260e081815250508161010081815250504660a08181525050620001ae8184846200026460201b60201c565b608081815250503073ffffffffffffffffffffffffffffffffffffffff1660c08173ffffffffffffffffffffffffffffffffffffffff1660601b815250508061012081815250505050505050506200021b6200020f620002a060201b60201c565b620002a860201b60201c565b60006200022d6200036e60201b60201c565b600a6200023b9190620007a7565b82620002489190620008e4565b90506200025c33826200037760201b60201c565b505062000a83565b600083838346306040516020016200028195949392919062000642565b6040516020818303038152906040528051906020012090509392505050565b600033905090565b6000600760009054906101000a900473ffffffffffffffffffffffffffffffffffffffff16905081600760006101000a81548173ffffffffffffffffffffffffffffffffffffffff021916908373ffffffffffffffffffffffffffffffffffffffff1602179055508173ffffffffffffffffffffffffffffffffffffffff168173ffffffffffffffffffffffffffffffffffffffff167f8be0079c531659141344cd1fd0a4f28419497f9722a3daafe3b4186f6b6457e060405160405180910390a35050565b60006012905090565b600073ffffffffffffffffffffffffffffffffffffffff168273ffffffffffffffffffffffffffffffffffffffff161415620003ea576040517f08c379a0000000000000000000000000000000000000000000000000000000008152600401620003e1906200069f565b60405180910390fd5b620003fe60008383620004e560201b60201c565b8060026000828254620004129190620006ef565b92505081905550806000808473ffffffffffffffffffffffffffffffffffffffff1673ffffffffffffffffffffffffffffffffffffffff168152602001908152602001600020600082825401925050819055508173ffffffffffffffffffffffffffffffffffffffff16600073ffffffffffffffffffffffffffffffffffffffff167fddf252ad1be2c89b69c2b068fc378daa952ba7f163c4a11628f55a4df523b3ef83604051620004c59190620006c1565b60405180910390a3620004e160008383620004ea60201b60201c565b5050565b505050565b505050565b828054620004fd906200099a565b90600052602060002090601f0160209004810192826200052157600085556200056d565b82601f106200053c57805160ff19168380011785556200056d565b828001600101855582156200056d579182015b828111156200056c5782518255916020019190600101906200054f565b5b5090506200057c919062000580565b5090565b5b808211156200059b57600081600090555060010162000581565b5090565b600081519050620005b08162000a69565b92915050565b600060208284031215620005cf57620005ce62000a2e565b5b6000620005df848285016200059f565b91505092915050565b620005f38162000945565b82525050565b620006048162000959565b82525050565b600062000619601f83620006de565b9150620006268262000a40565b602082019050919050565b6200063c8162000983565b82525050565b600060a082019050620006596000830188620005f9565b620006686020830187620005f9565b620006776040830186620005f9565b62000686606083018562000631565b620006956080830184620005e8565b9695505050505050565b60006020820190508181036000830152620006ba816200060a565b9050919050565b6000602082019050620006d8600083018462000631565b92915050565b600082825260208201905092915050565b6000620006fc8262000983565b9150620007098362000983565b9250827fffffffffffffffffffffffffffffffffffffffffffffffffffffffffffffffff03821115620007415762000740620009d0565b5b828201905092915050565b6000808291508390505b60018511156200079e57808604811115620007765762000775620009d0565b5b6001851615620007865780820291505b8081029050620007968562000a33565b945062000756565b94509492505050565b6000620007b48262000983565b9150620007c1836200098d565b9250620007f07fffffffffffffffffffffffffffffffffffffffffffffffffffffffffffffffff8484620007f8565b905092915050565b6000826200080a5760019050620008dd565b816200081a5760009050620008dd565b81600181146200083357600281146200083e5762000874565b6001915050620008dd565b60ff841115620008535762000852620009d0565b5b8360020a9150848211156200086d576200086c620009d0565b5b50620008dd565b5060208310610133831016604e8410600b8410161715620008ae5782820a905083811115620008a857620008a7620009d0565b5b620008dd565b620008bd84848460016200074c565b92509050818404811115620008d757620008d6620009d0565b5b81810290505b9392505050565b6000620008f18262000983565b9150620008fe8362000983565b9250817fffffffffffffffffffffffffffffffffffffffffffffffffffffffffffffffff04831182151516156200093a5762000939620009d0565b5b828202905092915050565b6000620009528262000963565b9050919050565b6000819050919050565b600073ffffffffffffffffffffffffffffffffffffffff82169050919050565b6000819050919050565b600060ff82169050919050565b60006002820490506001821680620009b357607f821691505b60208210811415620009ca57620009c9620009ff565b5b50919050565b7f4e487b7100000000000000000000000000000000000000000000000000000000600052601160045260246000fd5b7f4e487b7100000000000000000000000000000000000000000000000000000000600052602260045260246000fd5b600080fd5b60008160011c9050919050565b7f45524332303a206d696e7420746f20746865207a65726f206164647265737300600082015250565b62000a748162000983565b811462000a8057600080fd5b50565b60805160a05160c05160601c60e05161010051610120516126c762000ad66000396000610f9f01526000610fe101526000610fc001526000610ef501526000610f4b01526000610f7401526126c76000f3fe608060405234801561001057600080fd5b506004361061012c5760003560e01c806370a08231116100ad578063a457c2d711610071578063a457c2d714610335578063a9059cbb14610365578063d505accf14610395578063dd62ed3e146103b1578063f2fde38b146103e15761012c565b806370a082311461028f578063715018a6146102bf5780637ecebe00146102c95780638da5cb5b146102f957806395d89b41146103175761012c565b8063313ce567116100f4578063313ce567146101eb5780633644e51514610209578063395093511461022757806340c10f19146102575780634847a79c146102735761012c565b806306fdde0314610131578063095ea7b31461014f57806318160ddd1461017f57806323b872dd1461019d57806330adf81f146101cd575b600080fd5b6101396103fd565b6040516101469190611c77565b60405180910390f35b610169600480360381019061016491906117eb565b61048f565b6040516101769190611b48565b60405180910390f35b6101876104b2565b6040516101949190611e79565b60405180910390f35b6101b760048036038101906101b291906116f6565b6104bc565b6040516101c49190611b48565b60405180910390f35b6101d56104eb565b6040516101e29190611b63565b60405180910390f35b6101f361050f565b6040516102009190611e94565b60405180910390f35b610211610518565b60405161021e9190611b63565b60405180910390f35b610241600480360381019061023c91906117eb565b610527565b60405161024e9190611b48565b60405180910390f35b610271600480360381019061026c91906117eb565b61055e565b005b61028d600480360381019061028891906117eb565b610598565b005b6102a960048036038101906102a49190611689565b6105cb565b6040516102b69190611e79565b60405180910390f35b6102c7610613565b005b6102e360048036038101906102de9190611689565b610627565b6040516102f09190611e79565b60405180910390f35b610301610677565b60405161030e9190611b2d565b60405180910390f35b61031f6106a1565b60405161032c9190611c77565b60405180910390f35b61034f600480360381019061034a91906117eb565b610733565b60405161035c9190611b48565b60405180910390f35b61037f600480360381019061037a91906117eb565b6107aa565b60405161038c9190611b48565b60405180910390f35b6103af60048036038101906103aa9190611749565b6107cd565b005b6103cb60048036038101906103c691906116b6565b61090f565b6040516103d89190611e79565b60405180910390f35b6103fb60048036038101906103f69190611689565b610996565b005b60606003805461040c90612189565b80601f016020809104026020016040519081016040528092919081815260200182805461043890612189565b80156104855780601f1061045a57610100808354040283529160200191610485565b820191906000526020600020905b81548152906001019060200180831161046857829003601f168201915b5050505050905090565b60008061049a610a1a565b90506104a7818585610a22565b600191505092915050565b6000600254905090565b6000806104c7610a1a565b90506104d4858285610bed565b6104df858585610c79565b60019150509392505050565b7f6e71edae12b1b97f4d1f60370fef10105fa2faae0126114a169c64845d6126c981565b60006012905090565b6000610522610ef1565b905090565b600080610532610a1a565b9050610553818585610544858961090f565b61054e9190611ed6565b610a22565b600191505092915050565b61056661100b565b600061057061050f565b600a61057c9190611f7f565b82610587919061209d565b90506105938382611089565b505050565b60006105a261050f565b600a6105ae9190611f7f565b826105b9919061209d565b90506105c583826107aa565b50505050565b60008060008373ffffffffffffffffffffffffffffffffffffffff1673ffffffffffffffffffffffffffffffffffffffff168152602001908152602001600020549050919050565b61061b61100b565b61062560006111e0565b565b6000610670600560008473ffffffffffffffffffffffffffffffffffffffff1673ffffffffffffffffffffffffffffffffffffffff1681526020019081526020016000206112a6565b9050919050565b6000600760009054906101000a900473ffffffffffffffffffffffffffffffffffffffff16905090565b6060600480546106b090612189565b80601f01602080910402602001604051908101604052809291908181526020018280546106dc90612189565b80156107295780601f106106fe57610100808354040283529160200191610729565b820191906000526020600020905b81548152906001019060200180831161070c57829003601f168201915b5050505050905090565b60008061073e610a1a565b9050600061074c828661090f565b905083811015610791576040517f08c379a000000000000000000000000000000000000000000000000000000000815260040161078890611e39565b60405180910390fd5b61079e8286868403610a22565b60019250505092915050565b6000806107b5610a1a565b90506107c2818585610c79565b600191505092915050565b83421115610810576040517f08c379a000000000000000000000000000000000000000000000000000000000815260040161080790611d59565b60405180910390fd5b60007f6e71edae12b1b97f4d1f60370fef10105fa2faae0126114a169c64845d6126c988888861083f8c6112b4565b8960405160200161085596959493929190611b7e565b604051602081830303815290604052805190602001209050600061087882611312565b905060006108888287878761132c565b90508973ffffffffffffffffffffffffffffffffffffffff168173ffffffffffffffffffffffffffffffffffffffff16146108f8576040517f08c379a00000000000000000000000000000000000000000000000000000000081526004016108ef90611db9565b60405180910390fd5b6109038a8a8a610a22565b50505050505050505050565b6000600160008473ffffffffffffffffffffffffffffffffffffffff1673ffffffffffffffffffffffffffffffffffffffff16815260200190815260200160002060008373ffffffffffffffffffffffffffffffffffffffff1673ffffffffffffffffffffffffffffffffffffffff16815260200190815260200160002054905092915050565b61099e61100b565b600073ffffffffffffffffffffffffffffffffffffffff168173ffffffffffffffffffffffffffffffffffffffff161415610a0e576040517f08c379a0000000000000000000000000000000000000000000000000000000008152600401610a0590611cf9565b60405180910390fd5b610a17816111e0565b50565b600033905090565b600073ffffffffffffffffffffffffffffffffffffffff168373ffffffffffffffffffffffffffffffffffffffff161415610a92576040517f08c379a0000000000000000000000000000000000000000000000000000000008152600401610a8990611e19565b60405180910390fd5b600073ffffffffffffffffffffffffffffffffffffffff168273ffffffffffffffffffffffffffffffffffffffff161415610b02576040517f08c379a0000000000000000000000000000000000000000000000000000000008152600401610af990611d19565b60405180910390fd5b80600160008573ffffffffffffffffffffffffffffffffffffffff1673ffffffffffffffffffffffffffffffffffffffff16815260200190815260200160002060008473ffffffffffffffffffffffffffffffffffffffff1673ffffffffffffffffffffffffffffffffffffffff168152602001908152602001600020819055508173ffffffffffffffffffffffffffffffffffffffff168373ffffffffffffffffffffffffffffffffffffffff167f8c5be1e5ebec7d5bd14f71427d1e84f3dd0314c0f7b2291e5b200ac8c7c3b92583604051610be09190611e79565b60405180910390a3505050565b6000610bf9848461090f565b90507fffffffffffffffffffffffffffffffffffffffffffffffffffffffffffffffff8114610c735781811015610c65576040517f08c379a0000000000000000000000000000000000000000000000000000000008152600401610c5c90611d39565b60405180910390fd5b610c728484848403610a22565b5b50505050565b600073ffffffffffffffffffffffffffffffffffffffff168373ffffffffffffffffffffffffffffffffffffffff161415610ce9576040517f08c379a0000000000000000000000000000000000000000000000000000000008152600401610ce090611df9565b60405180910390fd5b600073ffffffffffffffffffffffffffffffffffffffff168273ffffffffffffffffffffffffffffffffffffffff161415610d59576040517f08c379a0000000000000000000000000000000000000000000000000000000008152600401610d5090611cb9565b60405180910390fd5b610d64838383611357565b60008060008573ffffffffffffffffffffffffffffffffffffffff1673ffffffffffffffffffffffffffffffffffffffff16815260200190815260200160002054905081811015610dea576040517f08c379a0000000000000000000000000000000000000000000000000000000008152600401610de190611d79565b60405180910390fd5b8181036000808673ffffffffffffffffffffffffffffffffffffffff1673ffffffffffffffffffffffffffffffffffffffff16815260200190815260200160002081905550816000808573ffffffffffffffffffffffffffffffffffffffff1673ffffffffffffffffffffffffffffffffffffffff168152602001908152602001600020600082825401925050819055508273ffffffffffffffffffffffffffffffffffffffff168473ffffffffffffffffffffffffffffffffffffffff167fddf252ad1be2c89b69c2b068fc378daa952ba7f163c4a11628f55a4df523b3ef84604051610ed89190611e79565b60405180910390a3610eeb84848461135c565b50505050565b60007f000000000000000000000000000000000000000000000000000000000000000073ffffffffffffffffffffffffffffffffffffffff163073ffffffffffffffffffffffffffffffffffffffff16148015610f6d57507f000000000000000000000000000000000000000000000000000000000000000046145b15610f9a577f00000000000000000000000000000000000000000000000000000000000000009050611008565b6110057f00000000000000000000000000000000000000000000000000000000000000007f00000000000000000000000000000000000000000000000000000000000000007f0000000000000000000000000000000000000000000000000000000000000000611361565b90505b90565b611013610a1a565b73ffffffffffffffffffffffffffffffffffffffff16611031610677565b73ffffffffffffffffffffffffffffffffffffffff1614611087576040517f08c379a000000000000000000000000000000000000000000000000000000000815260040161107e90611dd9565b60405180910390fd5b565b600073ffffffffffffffffffffffffffffffffffffffff168273ffffffffffffffffffffffffffffffffffffffff1614156110f9576040517f08c379a00000000000000000000000000000000000000000000000000000000081526004016110f090611e59565b60405180910390fd5b61110560008383611357565b80600260008282546111179190611ed6565b92505081905550806000808473ffffffffffffffffffffffffffffffffffffffff1673ffffffffffffffffffffffffffffffffffffffff168152602001908152602001600020600082825401925050819055508173ffffffffffffffffffffffffffffffffffffffff16600073ffffffffffffffffffffffffffffffffffffffff167fddf252ad1be2c89b69c2b068fc378daa952ba7f163c4a11628f55a4df523b3ef836040516111c89190611e79565b60405180910390a36111dc6000838361135c565b5050565b6000600760009054906101000a900473ffffffffffffffffffffffffffffffffffffffff16905081600760006101000a81548173ffffffffffffffffffffffffffffffffffffffff021916908373ffffffffffffffffffffffffffffffffffffffff1602179055508173ffffffffffffffffffffffffffffffffffffffff168173ffffffffffffffffffffffffffffffffffffffff167f8be0079c531659141344cd1fd0a4f28419497f9722a3daafe3b4186f6b6457e060405160405180910390a35050565b600081600001549050919050565b600080600560008473ffffffffffffffffffffffffffffffffffffffff1673ffffffffffffffffffffffffffffffffffffffff1681526020019081526020016000209050611301816112a6565b915061130c8161139b565b50919050565b600061132561131f610ef1565b836113b1565b9050919050565b600080600061133d878787876113e4565b9150915061134a816114c7565b8192505050949350505050565b505050565b505050565b6000838383463060405160200161137c959493929190611bdf565b6040516020818303038152906040528051906020012090509392505050565b6001816000016000828254019250508190555050565b600082826040516020016113c6929190611af6565b60405160208183030381529060405280519060200120905092915050565b6000807f7fffffffffffffffffffffffffffffff5d576e7357a4501ddfe92f46681b20a08360001c111561141f5760006003915091506114be565b6000600187878787604051600081526020016040526040516114449493929190611c32565b6020604051602081039080840390855afa158015611466573d6000803e3d6000fd5b505050602060405103519050600073ffffffffffffffffffffffffffffffffffffffff168173ffffffffffffffffffffffffffffffffffffffff1614156114b5576000600192509250506114be565b80600092509250505b94509492505050565b600060048111156114db576114da6121f4565b5b8160048111156114ee576114ed6121f4565b5b14156114f957611632565b6001600481111561150d5761150c6121f4565b5b8160048111156115205761151f6121f4565b5b1415611561576040517f08c379a000000000000000000000000000000000000000000000000000000000815260040161155890611c99565b60405180910390fd5b60026004811115611575576115746121f4565b5b816004811115611588576115876121f4565b5b14156115c9576040517f08c379a00000000000000000000000000000000000000000000000000000000081526004016115c090611cd9565b60405180910390fd5b600360048111156115dd576115dc6121f4565b5b8160048111156115f0576115ef6121f4565b5b1415611631576040517f08c379a000000000000000000000000000000000000000000000000000000000815260040161162890611d99565b60405180910390fd5b5b50565b60008135905061164481612635565b92915050565b6000813590506116598161264c565b92915050565b60008135905061166e81612663565b92915050565b6000813590506116838161267a565b92915050565b60006020828403121561169f5761169e612252565b5b60006116ad84828501611635565b91505092915050565b600080604083850312156116cd576116cc612252565b5b60006116db85828601611635565b92505060206116ec85828601611635565b9150509250929050565b60008060006060848603121561170f5761170e612252565b5b600061171d86828701611635565b935050602061172e86828701611635565b925050604061173f8682870161165f565b9150509250925092565b600080600080600080600060e0888a03121561176857611767612252565b5b60006117768a828b01611635565b97505060206117878a828b01611635565b96505060406117988a828b0161165f565b95505060606117a98a828b0161165f565b94505060806117ba8a828b01611674565b93505060a06117cb8a828b0161164a565b92505060c06117dc8a828b0161164a565b91505092959891949750929550565b6000806040838503121561180257611801612252565b5b600061181085828601611635565b92505060206118218582860161165f565b9150509250929050565b611834816120f7565b82525050565b61184381612109565b82525050565b61185281612115565b82525050565b61186961186482612115565b6121bb565b82525050565b600061187a82611eaf565b6118848185611eba565b9350611894818560208601612156565b61189d81612257565b840191505092915050565b60006118b5601883611eba565b91506118c082612275565b602082019050919050565b60006118d8602383611eba565b91506118e38261229e565b604082019050919050565b60006118fb601f83611eba565b9150611906826122ed565b602082019050919050565b600061191e602683611eba565b915061192982612316565b604082019050919050565b6000611941602283611eba565b915061194c82612365565b604082019050919050565b6000611964600283611ecb565b915061196f826123b4565b600282019050919050565b6000611987601d83611eba565b9150611992826123dd565b602082019050919050565b60006119aa601d83611eba565b91506119b582612406565b602082019050919050565b60006119cd602683611eba565b91506119d88261242f565b604082019050919050565b60006119f0602283611eba565b91506119fb8261247e565b604082019050919050565b6000611a13601e83611eba565b9150611a1e826124cd565b602082019050919050565b6000611a36602083611eba565b9150611a41826124f6565b602082019050919050565b6000611a59602583611eba565b9150611a648261251f565b604082019050919050565b6000611a7c602483611eba565b9150611a878261256e565b604082019050919050565b6000611a9f602583611eba565b9150611aaa826125bd565b604082019050919050565b6000611ac2601f83611eba565b9150611acd8261260c565b602082019050919050565b611ae18161213f565b82525050565b611af081612149565b82525050565b6000611b0182611957565b9150611b0d8285611858565b602082019150611b1d8284611858565b6020820191508190509392505050565b6000602082019050611b42600083018461182b565b92915050565b6000602082019050611b5d600083018461183a565b92915050565b6000602082019050611b786000830184611849565b92915050565b600060c082019050611b936000830189611849565b611ba0602083018861182b565b611bad604083018761182b565b611bba6060830186611ad8565b611bc76080830185611ad8565b611bd460a0830184611ad8565b979650505050505050565b600060a082019050611bf46000830188611849565b611c016020830187611849565b611c0e6040830186611849565b611c1b6060830185611ad8565b611c28608083018461182b565b9695505050505050565b6000608082019050611c476000830187611849565b611c546020830186611ae7565b611c616040830185611849565b611c6e6060830184611849565b95945050505050565b60006020820190508181036000830152611c91818461186f565b905092915050565b60006020820190508181036000830152611cb2816118a8565b9050919050565b60006020820190508181036000830152611cd2816118cb565b9050919050565b60006020820190508181036000830152611cf2816118ee565b9050919050565b60006020820190508181036000830152611d1281611911565b9050919050565b60006020820190508181036000830152611d3281611934565b9050919050565b60006020820190508181036000830152611d528161197a565b9050919050565b60006020820190508181036000830152611d728161199d565b9050919050565b60006020820190508181036000830152611d92816119c0565b9050919050565b60006020820190508181036000830152611db2816119e3565b9050919050565b60006020820190508181036000830152611dd281611a06565b9050919050565b60006020820190508181036000830152611df281611a29565b9050919050565b60006020820190508181036000830152611e1281611a4c565b9050919050565b60006020820190508181036000830152611e3281611a6f565b9050919050565b60006020820190508181036000830152611e5281611a92565b9050919050565b60006020820190508181036000830152611e7281611ab5565b9050919050565b6000602082019050611e8e6000830184611ad8565b92915050565b6000602082019050611ea96000830184611ae7565b92915050565b600081519050919050565b600082825260208201905092915050565b600081905092915050565b6000611ee18261213f565b9150611eec8361213f565b9250827fffffffffffffffffffffffffffffffffffffffffffffffffffffffffffffffff03821115611f2157611f206121c5565b5b828201905092915050565b6000808291508390505b6001851115611f7657808604811115611f5257611f516121c5565b5b6001851615611f615780820291505b8081029050611f6f85612268565b9450611f36565b94509492505050565b6000611f8a8261213f565b9150611f9583612149565b9250611fc27fffffffffffffffffffffffffffffffffffffffffffffffffffffffffffffffff8484611fca565b905092915050565b600082611fda5760019050612096565b81611fe85760009050612096565b8160018114611ffe576002811461200857612037565b6001915050612096565b60ff84111561201a576120196121c5565b5b8360020a915084821115612031576120306121c5565b5b50612096565b5060208310610133831016604e8410600b841016171561206c5782820a905083811115612067576120666121c5565b5b612096565b6120798484846001611f2c565b925090508184048111156120905761208f6121c5565b5b81810290505b9392505050565b60006120a88261213f565b91506120b38361213f565b9250817fffffffffffffffffffffffffffffffffffffffffffffffffffffffffffffffff04831182151516156120ec576120eb6121c5565b5b828202905092915050565b60006121028261211f565b9050919050565b60008115159050919050565b6000819050919050565b600073ffffffffffffffffffffffffffffffffffffffff82169050919050565b6000819050919050565b600060ff82169050919050565b60005b83811015612174578082015181840152602081019050612159565b83811115612183576000848401525b50505050565b600060028204905060018216806121a157607f821691505b602082108114156121b5576121b4612223565b5b50919050565b6000819050919050565b7f4e487b7100000000000000000000000000000000000000000000000000000000600052601160045260246000fd5b7f4e487b7100000000000000000000000000000000000000000000000000000000600052602160045260246000fd5b7f4e487b7100000000000000000000000000000000000000000000000000000000600052602260045260246000fd5b600080fd5b6000601f19601f8301169050919050565b60008160011c9050919050565b7f45434453413a20696e76616c6964207369676e61747572650000000000000000600082015250565b7f45524332303a207472616e7366657220746f20746865207a65726f206164647260008201527f6573730000000000000000000000000000000000000000000000000000000000602082015250565b7f45434453413a20696e76616c6964207369676e6174757265206c656e67746800600082015250565b7f4f776e61626c653a206e6577206f776e657220697320746865207a65726f206160008201527f6464726573730000000000000000000000000000000000000000000000000000602082015250565b7f45524332303a20617070726f766520746f20746865207a65726f20616464726560008201527f7373000000000000000000000000000000000000000000000000000000000000602082015250565b7f1901000000000000000000000000000000000000000000000000000000000000600082015250565b7f45524332303a20696e73756666696369656e7420616c6c6f77616e6365000000600082015250565b7f45524332305065726d69743a206578706972656420646561646c696e65000000600082015250565b7f45524332303a207472616e7366657220616d6f756e742065786365656473206260008201527f616c616e63650000000000000000000000000000000000000000000000000000602082015250565b7f45434453413a20696e76616c6964207369676e6174757265202773272076616c60008201527f7565000000000000000000000000000000000000000000000000000000000000602082015250565b7f45524332305065726d69743a20696e76616c6964207369676e61747572650000600082015250565b7f4f776e61626c653a2063616c6c6572206973206e6f7420746865206f776e6572600082015250565b7f45524332303a207472616e736665722066726f6d20746865207a65726f20616460008201527f6472657373000000000000000000000000000000000000000000000000000000602082015250565b7f45524332303a20617070726f76652066726f6d20746865207a65726f2061646460008201527f7265737300000000000000000000000000000000000000000000000000000000602082015250565b7f45524332303a2064656372656173656420616c6c6f77616e63652062656c6f7760008201527f207a65726f000000000000000000000000000000000000000000000000000000602082015250565b7f45524332303a206d696e7420746f20746865207a65726f206164647265737300600082015250565b61263e816120f7565b811461264957600080fd5b50565b61265581612115565b811461266057600080fd5b50565b61266c8161213f565b811461267757600080fd5b50565b61268381612149565b811461268e57600080fd5b5056fea26469706673582212201e84f29834295d7b2f49d779c5529026564755b3942c7e9f315d508f28bfbe7a64736f6c63430008070033",
  "devdoc": {
    "author": "olaoye Salem",
    "details": "This contract inherits most of the functions from openzeppelin",
    "kind": "dev",
    "methods": {
      "DOMAIN_SEPARATOR()": {
        "details": "See {IERC20Permit-DOMAIN_SEPARATOR}."
      },
      "allowance(address,address)": {
        "details": "See {IERC20-allowance}."
      },
      "approve(address,uint256)": {
        "details": "See {IERC20-approve}. NOTE: If `amount` is the maximum `uint256`, the allowance is not updated on `transferFrom`. This is semantically equivalent to an infinite approval. Requirements: - `spender` cannot be the zero address."
      },
      "balanceOf(address)": {
        "details": "See {IERC20-balanceOf}."
      },
      "decimals()": {
        "details": "Returns the number of decimals used to get its user representation. For example, if `decimals` equals `2`, a balance of `505` tokens should be displayed to a user as `5.05` (`505 / 10 ** 2`). Tokens usually opt for a value of 18, imitating the relationship between Ether and Wei. This is the value {ERC20} uses, unless this function is overridden; NOTE: This information is only used for _display_ purposes: it in no way affects any of the arithmetic of the contract, including {IERC20-balanceOf} and {IERC20-transfer}."
      },
      "decreaseAllowance(address,uint256)": {
        "details": "Atomically decreases the allowance granted to `spender` by the caller. This is an alternative to {approve} that can be used as a mitigation for problems described in {IERC20-approve}. Emits an {Approval} event indicating the updated allowance. Requirements: - `spender` cannot be the zero address. - `spender` must have allowance for the caller of at least `subtractedValue`."
      },
      "increaseAllowance(address,uint256)": {
        "details": "Atomically increases the allowance granted to `spender` by the caller. This is an alternative to {approve} that can be used as a mitigation for problems described in {IERC20-approve}. Emits an {Approval} event indicating the updated allowance. Requirements: - `spender` cannot be the zero address."
      },
      "name()": {
        "details": "Returns the name of the token."
      },
      "nonces(address)": {
        "details": "See {IERC20Permit-nonces}."
      },
      "owner()": {
        "details": "Returns the address of the current owner."
      },
      "permit(address,address,uint256,uint256,uint8,bytes32,bytes32)": {
        "details": "See {IERC20Permit-permit}."
      },
      "renounceOwnership()": {
        "details": "Leaves the contract without owner. It will not be possible to call `onlyOwner` functions anymore. Can only be called by the current owner. NOTE: Renouncing ownership will leave the contract without an owner, thereby removing any functionality that is only available to the owner."
      },
      "symbol()": {
        "details": "Returns the symbol of the token, usually a shorter version of the name."
      },
      "totalSupply()": {
        "details": "See {IERC20-totalSupply}."
      },
      "transfer(address,uint256)": {
        "details": "See {IERC20-transfer}. Requirements: - `to` cannot be the zero address. - the caller must have a balance of at least `amount`."
      },
      "transferFrom(address,address,uint256)": {
        "details": "See {IERC20-transferFrom}. Emits an {Approval} event indicating the updated allowance. This is not required by the EIP. See the note at the beginning of {ERC20}. NOTE: Does not update the allowance if the current allowance is the maximum `uint256`. Requirements: - `from` and `to` cannot be the zero address. - `from` must have a balance of at least `amount`. - the caller must have allowance for ``from``'s tokens of at least `amount`."
      },
      "transferOwnership(address)": {
        "details": "Transfers ownership of the contract to a new account (`newOwner`). Can only be called by the current owner."
      }
    },
    "title": "GUST",
    "version": 1
  },
  "userdoc": {
    "kind": "user",
    "methods": {},
    "notice": "This Contract deploys GU$T as Gipper Labs  Token used  and allow only the owner to call _mint function This contract also implements the EIP 2612 permit , already ERC20 permit, which grant permission to others to spend their tokens in a single transaction.",
    "version": 1
  },
  "storageLayout": {
    "storage": [
      {
        "astId": 236,
        "contract": "contracts/GUST.sol:GUST",
        "label": "_balances",
        "offset": 0,
        "slot": "0",
        "type": "t_mapping(t_address,t_uint256)"
      },
      {
        "astId": 242,
        "contract": "contracts/GUST.sol:GUST",
        "label": "_allowances",
        "offset": 0,
        "slot": "1",
        "type": "t_mapping(t_address,t_mapping(t_address,t_uint256))"
      },
      {
        "astId": 244,
        "contract": "contracts/GUST.sol:GUST",
        "label": "_totalSupply",
        "offset": 0,
        "slot": "2",
        "type": "t_uint256"
      },
      {
        "astId": 246,
        "contract": "contracts/GUST.sol:GUST",
        "label": "_name",
        "offset": 0,
        "slot": "3",
        "type": "t_string_storage"
      },
      {
        "astId": 248,
        "contract": "contracts/GUST.sol:GUST",
        "label": "_symbol",
        "offset": 0,
        "slot": "4",
        "type": "t_string_storage"
      },
      {
        "astId": 1014,
        "contract": "contracts/GUST.sol:GUST",
        "label": "_nonces",
        "offset": 0,
        "slot": "5",
        "type": "t_mapping(t_address,t_struct(Counter)1227_storage)"
      },
      {
        "astId": 1022,
        "contract": "contracts/GUST.sol:GUST",
        "label": "_PERMIT_TYPEHASH_DEPRECATED_SLOT",
        "offset": 0,
        "slot": "6",
        "type": "t_bytes32"
      },
      {
        "astId": 7,
        "contract": "contracts/GUST.sol:GUST",
        "label": "_owner",
        "offset": 0,
        "slot": "7",
        "type": "t_address"
      }
    ],
    "types": {
      "t_address": {
        "encoding": "inplace",
        "label": "address",
        "numberOfBytes": "20"
      },
      "t_bytes32": {
        "encoding": "inplace",
        "label": "bytes32",
        "numberOfBytes": "32"
      },
      "t_mapping(t_address,t_mapping(t_address,t_uint256))": {
        "encoding": "mapping",
        "key": "t_address",
        "label": "mapping(address => mapping(address => uint256))",
        "numberOfBytes": "32",
        "value": "t_mapping(t_address,t_uint256)"
      },
      "t_mapping(t_address,t_struct(Counter)1227_storage)": {
        "encoding": "mapping",
        "key": "t_address",
        "label": "mapping(address => struct Counters.Counter)",
        "numberOfBytes": "32",
        "value": "t_struct(Counter)1227_storage"
      },
      "t_mapping(t_address,t_uint256)": {
        "encoding": "mapping",
        "key": "t_address",
        "label": "mapping(address => uint256)",
        "numberOfBytes": "32",
        "value": "t_uint256"
      },
      "t_string_storage": {
        "encoding": "bytes",
        "label": "string",
        "numberOfBytes": "32"
      },
      "t_struct(Counter)1227_storage": {
        "encoding": "inplace",
        "label": "struct Counters.Counter",
        "members": [
          {
            "astId": 1226,
            "contract": "contracts/GUST.sol:GUST",
            "label": "_value",
            "offset": 0,
            "slot": "0",
            "type": "t_uint256"
          }
        ],
        "numberOfBytes": "32"
      },
      "t_uint256": {
        "encoding": "inplace",
        "label": "uint256",
        "numberOfBytes": "32"
      }
    }
  }
}