{
  "address": "0x5FbDB2315678afecb367f032d93F642f64180aa3",
  "abi": [
    {
      "inputs": [
        {
          "internalType": "uint256",
          "name": "_amount",
          "type": "uint256"
        }
      ],
      "stateMutability": "nonpayable",
      "type": "constructor"
    },
    {
      "anonymous": false,
      "inputs": [
        {
          "indexed": true,
          "internalType": "address",
          "name": "owner",
          "type": "address"
        },
        {
          "indexed": true,
          "internalType": "address",
          "name": "spender",
          "type": "address"
        },
        {
          "indexed": false,
          "internalType": "uint256",
          "name": "value",
          "type": "uint256"
        }
      ],
      "name": "Approval",
      "type": "event"
    },
    {
      "anonymous": false,
      "inputs": [
        {
          "indexed": true,
          "internalType": "address",
          "name": "previousOwner",
          "type": "address"
        },
        {
          "indexed": true,
          "internalType": "address",
          "name": "newOwner",
          "type": "address"
        }
      ],
      "name": "OwnershipTransferred",
      "type": "event"
    },
    {
      "anonymous": false,
      "inputs": [
        {
          "indexed": true,
          "internalType": "address",
          "name": "from",
          "type": "address"
        },
        {
          "indexed": true,
          "internalType": "address",
          "name": "to",
          "type": "address"
        },
        {
          "indexed": false,
          "internalType": "uint256",
          "name": "value",
          "type": "uint256"
        }
      ],
      "name": "Transfer",
      "type": "event"
    },
    {
      "inputs": [],
      "name": "DOMAIN_SEPARATOR",
      "outputs": [
        {
          "internalType": "bytes32",
          "name": "",
          "type": "bytes32"
        }
      ],
      "stateMutability": "view",
      "type": "function"
    },
    {
      "inputs": [],
      "name": "PERMIT_TYPEHASH",
      "outputs": [
        {
          "internalType": "bytes32",
          "name": "",
          "type": "bytes32"
        }
      ],
      "stateMutability": "view",
      "type": "function"
    },
    {
      "inputs": [
        {
          "internalType": "address",
          "name": "owner",
          "type": "address"
        },
        {
          "internalType": "address",
          "name": "spender",
          "type": "address"
        }
      ],
      "name": "allowance",
      "outputs": [
        {
          "internalType": "uint256",
          "name": "",
          "type": "uint256"
        }
      ],
      "stateMutability": "view",
      "type": "function"
    },
    {
      "inputs": [
        {
          "internalType": "address",
          "name": "spender",
          "type": "address"
        },
        {
          "internalType": "uint256",
          "name": "amount",
          "type": "uint256"
        }
      ],
      "name": "approve",
      "outputs": [
        {
          "internalType": "bool",
          "name": "",
          "type": "bool"
        }
      ],
      "stateMutability": "nonpayable",
      "type": "function"
    },
    {
      "inputs": [
        {
          "internalType": "address",
          "name": "account",
          "type": "address"
        }
      ],
      "name": "balanceOf",
      "outputs": [
        {
          "internalType": "uint256",
          "name": "",
          "type": "uint256"
        }
      ],
      "stateMutability": "view",
      "type": "function"
    },
    {
      "inputs": [],
      "name": "decimals",
      "outputs": [
        {
          "internalType": "uint8",
          "name": "",
          "type": "uint8"
        }
      ],
      "stateMutability": "view",
      "type": "function"
    },
    {
      "inputs": [
        {
          "internalType": "address",
          "name": "spender",
          "type": "address"
        },
        {
          "internalType": "uint256",
          "name": "subtractedValue",
          "type": "uint256"
        }
      ],
      "name": "decreaseAllowance",
      "outputs": [
        {
          "internalType": "bool",
          "name": "",
          "type": "bool"
        }
      ],
      "stateMutability": "nonpayable",
      "type": "function"
    },
    {
      "inputs": [
        {
          "internalType": "address",
          "name": "spender",
          "type": "address"
        },
        {
          "internalType": "uint256",
          "name": "addedValue",
          "type": "uint256"
        }
      ],
      "name": "increaseAllowance",
      "outputs": [
        {
          "internalType": "bool",
          "name": "",
          "type": "bool"
        }
      ],
      "stateMutability": "nonpayable",
      "type": "function"
    },
    {
      "inputs": [
        {
          "internalType": "address",
          "name": "to",
          "type": "address"
        },
        {
          "internalType": "uint256",
          "name": "_amount",
          "type": "uint256"
        }
      ],
      "name": "mint",
      "outputs": [],
      "stateMutability": "nonpayable",
      "type": "function"
    },
    {
      "inputs": [],
      "name": "name",
      "outputs": [
        {
          "internalType": "string",
          "name": "",
          "type": "string"
        }
      ],
      "stateMutability": "view",
      "type": "function"
    },
    {
      "inputs": [
        {
          "internalType": "address",
          "name": "owner",
          "type": "address"
        }
      ],
      "name": "nonces",
      "outputs": [
        {
          "internalType": "uint256",
          "name": "",
          "type": "uint256"
        }
      ],
      "stateMutability": "view",
      "type": "function"
    },
    {
      "inputs": [],
      "name": "owner",
      "outputs": [
        {
          "internalType": "address",
          "name": "",
          "type": "address"
        }
      ],
      "stateMutability": "view",
      "type": "function"
    },
    {
      "inputs": [
        {
          "internalType": "address",
          "name": "owner",
          "type": "address"
        },
        {
          "internalType": "address",
          "name": "spender",
          "type": "address"
        },
        {
          "internalType": "uint256",
          "name": "value",
          "type": "uint256"
        },
        {
          "internalType": "uint256",
          "name": "deadline",
          "type": "uint256"
        },
        {
          "internalType": "uint8",
          "name": "v",
          "type": "uint8"
        },
        {
          "internalType": "bytes32",
          "name": "r",
          "type": "bytes32"
        },
        {
          "internalType": "bytes32",
          "name": "s",
          "type": "bytes32"
        }
      ],
      "name": "permit",
      "outputs": [],
      "stateMutability": "nonpayable",
      "type": "function"
    },
    {
      "inputs": [],
      "name": "renounceOwnership",
      "outputs": [],
      "stateMutability": "nonpayable",
      "type": "function"
    },
    {
      "inputs": [],
      "name": "symbol",
      "outputs": [
        {
          "internalType": "string",
          "name": "",
          "type": "string"
        }
      ],
      "stateMutability": "view",
      "type": "function"
    },
    {
      "inputs": [],
      "name": "totalSupply",
      "outputs": [
        {
          "internalType": "uint256",
          "name": "",
          "type": "uint256"
        }
      ],
      "stateMutability": "view",
      "type": "function"
    },
    {
      "inputs": [
        {
          "internalType": "address",
          "name": "to",
          "type": "address"
        },
        {
          "internalType": "uint256",
          "name": "amount",
          "type": "uint256"
        }
      ],
      "name": "transfer",
      "outputs": [
        {
          "internalType": "bool",
          "name": "",
          "type": "bool"
        }
      ],
      "stateMutability": "nonpayable",
      "type": "function"
    },
    {
      "inputs": [
        {
          "internalType": "address",
          "name": "from",
          "type": "address"
        },
        {
          "internalType": "address",
          "name": "to",
          "type": "address"
        },
        {
          "internalType": "uint256",
          "name": "amount",
          "type": "uint256"
        }
      ],
      "name": "transferFrom",
      "outputs": [
        {
          "internalType": "bool",
          "name": "",
          "type": "bool"
        }
      ],
      "stateMutability": "nonpayable",
      "type": "function"
    },
    {
      "inputs": [
        {
          "internalType": "address",
          "name": "newOwner",
          "type": "address"
        }
      ],
      "name": "transferOwnership",
      "outputs": [],
      "stateMutability": "nonpayable",
      "type": "function"
    }
  ],
  "transactionHash": "0x182f3d233654a202b91789e71becac537818aed70383c32b3ea6f71245957f83",
  "args": [
    1000
  ],
  "numDeployments": 1,
  "solcInputHash": "7f220a479c5cb91e26757ce6efb22b4a",
  "bytecode": "0x6101406040523480156200001257600080fd5b5060405162003143380380620031438339818101604052810190620000389190620005b6565b6040518060400160405280600481526020017f4755535400000000000000000000000000000000000000000000000000000000815250806040518060400160405280600181526020017f31000000000000000000000000000000000000000000000000000000000000008152506040518060400160405280600481526020017f47555354000000000000000000000000000000000000000000000000000000008152506040518060400160405280600481526020017f4755245400000000000000000000000000000000000000000000000000000000815250816003908051906020019062000129929190620004ef565b50806004908051906020019062000142929190620004ef565b50505060008280519060200120905060008280519060200120905060007f8b73c3c69bb8fe3d512ecc4cf759cc79239f7b179b0ffacaa9a75d522b39400f90508260e081815250508161010081815250504660a08181525050620001ae8184846200026460201b60201c565b608081815250503073ffffffffffffffffffffffffffffffffffffffff1660c08173ffffffffffffffffffffffffffffffffffffffff1660601b815250508061012081815250505050505050506200021b6200020f620002a060201b60201c565b620002a860201b60201c565b60006200022d6200036e60201b60201c565b600a6200023b9190620007a7565b82620002489190620008e4565b90506200025c33826200037760201b60201c565b505062000a83565b600083838346306040516020016200028195949392919062000642565b6040516020818303038152906040528051906020012090509392505050565b600033905090565b6000600760009054906101000a900473ffffffffffffffffffffffffffffffffffffffff16905081600760006101000a81548173ffffffffffffffffffffffffffffffffffffffff021916908373ffffffffffffffffffffffffffffffffffffffff1602179055508173ffffffffffffffffffffffffffffffffffffffff168173ffffffffffffffffffffffffffffffffffffffff167f8be0079c531659141344cd1fd0a4f28419497f9722a3daafe3b4186f6b6457e060405160405180910390a35050565b60006012905090565b600073ffffffffffffffffffffffffffffffffffffffff168273ffffffffffffffffffffffffffffffffffffffff161415620003ea576040517f08c379a0000000000000000000000000000000000000000000000000000000008152600401620003e1906200069f565b60405180910390fd5b620003fe60008383620004e560201b60201c565b8060026000828254620004129190620006ef565b92505081905550806000808473ffffffffffffffffffffffffffffffffffffffff1673ffffffffffffffffffffffffffffffffffffffff168152602001908152602001600020600082825401925050819055508173ffffffffffffffffffffffffffffffffffffffff16600073ffffffffffffffffffffffffffffffffffffffff167fddf252ad1be2c89b69c2b068fc378daa952ba7f163c4a11628f55a4df523b3ef83604051620004c59190620006c1565b60405180910390a3620004e160008383620004ea60201b60201c565b5050565b505050565b505050565b828054620004fd906200099a565b90600052602060002090601f0160209004810192826200052157600085556200056d565b82601f106200053c57805160ff19168380011785556200056d565b828001600101855582156200056d579182015b828111156200056c5782518255916020019190600101906200054f565b5b5090506200057c919062000580565b5090565b5b808211156200059b57600081600090555060010162000581565b5090565b600081519050620005b08162000a69565b92915050565b600060208284031215620005cf57620005ce62000a2e565b5b6000620005df848285016200059f565b91505092915050565b620005f38162000945565b82525050565b620006048162000959565b82525050565b600062000619601f83620006de565b9150620006268262000a40565b602082019050919050565b6200063c8162000983565b82525050565b600060a082019050620006596000830188620005f9565b620006686020830187620005f9565b620006776040830186620005f9565b62000686606083018562000631565b620006956080830184620005e8565b9695505050505050565b60006020820190508181036000830152620006ba816200060a565b9050919050565b6000602082019050620006d8600083018462000631565b92915050565b600082825260208201905092915050565b6000620006fc8262000983565b9150620007098362000983565b9250827fffffffffffffffffffffffffffffffffffffffffffffffffffffffffffffffff03821115620007415762000740620009d0565b5b828201905092915050565b6000808291508390505b60018511156200079e57808604811115620007765762000775620009d0565b5b6001851615620007865780820291505b8081029050620007968562000a33565b945062000756565b94509492505050565b6000620007b48262000983565b9150620007c1836200098d565b9250620007f07fffffffffffffffffffffffffffffffffffffffffffffffffffffffffffffffff8484620007f8565b905092915050565b6000826200080a5760019050620008dd565b816200081a5760009050620008dd565b81600181146200083357600281146200083e5762000874565b6001915050620008dd565b60ff841115620008535762000852620009d0565b5b8360020a9150848211156200086d576200086c620009d0565b5b50620008dd565b5060208310610133831016604e8410600b8410161715620008ae5782820a905083811115620008a857620008a7620009d0565b5b620008dd565b620008bd84848460016200074c565b92509050818404811115620008d757620008d6620009d0565b5b81810290505b9392505050565b6000620008f18262000983565b9150620008fe8362000983565b9250817fffffffffffffffffffffffffffffffffffffffffffffffffffffffffffffffff04831182151516156200093a5762000939620009d0565b5b828202905092915050565b6000620009528262000963565b9050919050565b6000819050919050565b600073ffffffffffffffffffffffffffffffffffffffff82169050919050565b6000819050919050565b600060ff82169050919050565b60006002820490506001821680620009b357607f821691505b60208210811415620009ca57620009c9620009ff565b5b50919050565b7f4e487b7100000000000000000000000000000000000000000000000000000000600052601160045260246000fd5b7f4e487b7100000000000000000000000000000000000000000000000000000000600052602260045260246000fd5b600080fd5b60008160011c9050919050565b7f45524332303a206d696e7420746f20746865207a65726f206164647265737300600082015250565b62000a748162000983565b811462000a8057600080fd5b50565b60805160a05160c05160601c60e051610100516101205161266d62000ad66000396000610f4501526000610f8701526000610f6601526000610e9b01526000610ef101526000610f1a015261266d6000f3fe608060405234801561001057600080fd5b50600436106101215760003560e01c806370a08231116100ad578063a457c2d711610071578063a457c2d71461030e578063a9059cbb1461033e578063d505accf1461036e578063dd62ed3e1461038a578063f2fde38b146103ba57610121565b806370a0823114610268578063715018a6146102985780637ecebe00146102a25780638da5cb5b146102d257806395d89b41146102f057610121565b806330adf81f116100f457806330adf81f146101c2578063313ce567146101e05780633644e515146101fe578063395093511461021c57806340c10f191461024c57610121565b806306fdde0314610126578063095ea7b31461014457806318160ddd1461017457806323b872dd14610192575b600080fd5b61012e6103d6565b60405161013b9190611c1d565b60405180910390f35b61015e60048036038101906101599190611791565b610468565b60405161016b9190611aee565b60405180910390f35b61017c61048b565b6040516101899190611e1f565b60405180910390f35b6101ac60048036038101906101a7919061169c565b610495565b6040516101b99190611aee565b60405180910390f35b6101ca6104c4565b6040516101d79190611b09565b60405180910390f35b6101e86104e8565b6040516101f59190611e3a565b60405180910390f35b6102066104f1565b6040516102139190611b09565b60405180910390f35b61023660048036038101906102319190611791565b610500565b6040516102439190611aee565b60405180910390f35b61026660048036038101906102619190611791565b610537565b005b610282600480360381019061027d919061162f565b610571565b60405161028f9190611e1f565b60405180910390f35b6102a06105b9565b005b6102bc60048036038101906102b7919061162f565b6105cd565b6040516102c99190611e1f565b60405180910390f35b6102da61061d565b6040516102e79190611ad3565b60405180910390f35b6102f8610647565b6040516103059190611c1d565b60405180910390f35b61032860048036038101906103239190611791565b6106d9565b6040516103359190611aee565b60405180910390f35b61035860048036038101906103539190611791565b610750565b6040516103659190611aee565b60405180910390f35b610388600480360381019061038391906116ef565b610773565b005b6103a4600480360381019061039f919061165c565b6108b5565b6040516103b19190611e1f565b60405180910390f35b6103d460048036038101906103cf919061162f565b61093c565b005b6060600380546103e59061212f565b80601f01602080910402602001604051908101604052809291908181526020018280546104119061212f565b801561045e5780601f106104335761010080835404028352916020019161045e565b820191906000526020600020905b81548152906001019060200180831161044157829003601f168201915b5050505050905090565b6000806104736109c0565b90506104808185856109c8565b600191505092915050565b6000600254905090565b6000806104a06109c0565b90506104ad858285610b93565b6104b8858585610c1f565b60019150509392505050565b7f6e71edae12b1b97f4d1f60370fef10105fa2faae0126114a169c64845d6126c981565b60006012905090565b60006104fb610e97565b905090565b60008061050b6109c0565b905061052c81858561051d85896108b5565b6105279190611e7c565b6109c8565b600191505092915050565b61053f610fb1565b60006105496104e8565b600a6105559190611f25565b826105609190612043565b905061056c838261102f565b505050565b60008060008373ffffffffffffffffffffffffffffffffffffffff1673ffffffffffffffffffffffffffffffffffffffff168152602001908152602001600020549050919050565b6105c1610fb1565b6105cb6000611186565b565b6000610616600560008473ffffffffffffffffffffffffffffffffffffffff1673ffffffffffffffffffffffffffffffffffffffff16815260200190815260200160002061124c565b9050919050565b6000600760009054906101000a900473ffffffffffffffffffffffffffffffffffffffff16905090565b6060600480546106569061212f565b80601f01602080910402602001604051908101604052809291908181526020018280546106829061212f565b80156106cf5780601f106106a4576101008083540402835291602001916106cf565b820191906000526020600020905b8154815290600101906020018083116106b257829003601f168201915b5050505050905090565b6000806106e46109c0565b905060006106f282866108b5565b905083811015610737576040517f08c379a000000000000000000000000000000000000000000000000000000000815260040161072e90611ddf565b60405180910390fd5b61074482868684036109c8565b60019250505092915050565b60008061075b6109c0565b9050610768818585610c1f565b600191505092915050565b834211156107b6576040517f08c379a00000000000000000000000000000000000000000000000000000000081526004016107ad90611cff565b60405180910390fd5b60007f6e71edae12b1b97f4d1f60370fef10105fa2faae0126114a169c64845d6126c98888886107e58c61125a565b896040516020016107fb96959493929190611b24565b604051602081830303815290604052805190602001209050600061081e826112b8565b9050600061082e828787876112d2565b90508973ffffffffffffffffffffffffffffffffffffffff168173ffffffffffffffffffffffffffffffffffffffff161461089e576040517f08c379a000000000000000000000000000000000000000000000000000000000815260040161089590611d5f565b60405180910390fd5b6108a98a8a8a6109c8565b50505050505050505050565b6000600160008473ffffffffffffffffffffffffffffffffffffffff1673ffffffffffffffffffffffffffffffffffffffff16815260200190815260200160002060008373ffffffffffffffffffffffffffffffffffffffff1673ffffffffffffffffffffffffffffffffffffffff16815260200190815260200160002054905092915050565b610944610fb1565b600073ffffffffffffffffffffffffffffffffffffffff168173ffffffffffffffffffffffffffffffffffffffff1614156109b4576040517f08c379a00000000000000000000000000000000000000000000000000000000081526004016109ab90611c9f565b60405180910390fd5b6109bd81611186565b50565b600033905090565b600073ffffffffffffffffffffffffffffffffffffffff168373ffffffffffffffffffffffffffffffffffffffff161415610a38576040517f08c379a0000000000000000000000000000000000000000000000000000000008152600401610a2f90611dbf565b60405180910390fd5b600073ffffffffffffffffffffffffffffffffffffffff168273ffffffffffffffffffffffffffffffffffffffff161415610aa8576040517f08c379a0000000000000000000000000000000000000000000000000000000008152600401610a9f90611cbf565b60405180910390fd5b80600160008573ffffffffffffffffffffffffffffffffffffffff1673ffffffffffffffffffffffffffffffffffffffff16815260200190815260200160002060008473ffffffffffffffffffffffffffffffffffffffff1673ffffffffffffffffffffffffffffffffffffffff168152602001908152602001600020819055508173ffffffffffffffffffffffffffffffffffffffff168373ffffffffffffffffffffffffffffffffffffffff167f8c5be1e5ebec7d5bd14f71427d1e84f3dd0314c0f7b2291e5b200ac8c7c3b92583604051610b869190611e1f565b60405180910390a3505050565b6000610b9f84846108b5565b90507fffffffffffffffffffffffffffffffffffffffffffffffffffffffffffffffff8114610c195781811015610c0b576040517f08c379a0000000000000000000000000000000000000000000000000000000008152600401610c0290611cdf565b60405180910390fd5b610c1884848484036109c8565b5b50505050565b600073ffffffffffffffffffffffffffffffffffffffff168373ffffffffffffffffffffffffffffffffffffffff161415610c8f576040517f08c379a0000000000000000000000000000000000000000000000000000000008152600401610c8690611d9f565b60405180910390fd5b600073ffffffffffffffffffffffffffffffffffffffff168273ffffffffffffffffffffffffffffffffffffffff161415610cff576040517f08c379a0000000000000000000000000000000000000000000000000000000008152600401610cf690611c5f565b60405180910390fd5b610d0a8383836112fd565b60008060008573ffffffffffffffffffffffffffffffffffffffff1673ffffffffffffffffffffffffffffffffffffffff16815260200190815260200160002054905081811015610d90576040517f08c379a0000000000000000000000000000000000000000000000000000000008152600401610d8790611d1f565b60405180910390fd5b8181036000808673ffffffffffffffffffffffffffffffffffffffff1673ffffffffffffffffffffffffffffffffffffffff16815260200190815260200160002081905550816000808573ffffffffffffffffffffffffffffffffffffffff1673ffffffffffffffffffffffffffffffffffffffff168152602001908152602001600020600082825401925050819055508273ffffffffffffffffffffffffffffffffffffffff168473ffffffffffffffffffffffffffffffffffffffff167fddf252ad1be2c89b69c2b068fc378daa952ba7f163c4a11628f55a4df523b3ef84604051610e7e9190611e1f565b60405180910390a3610e91848484611302565b50505050565b60007f000000000000000000000000000000000000000000000000000000000000000073ffffffffffffffffffffffffffffffffffffffff163073ffffffffffffffffffffffffffffffffffffffff16148015610f1357507f000000000000000000000000000000000000000000000000000000000000000046145b15610f40577f00000000000000000000000000000000000000000000000000000000000000009050610fae565b610fab7f00000000000000000000000000000000000000000000000000000000000000007f00000000000000000000000000000000000000000000000000000000000000007f0000000000000000000000000000000000000000000000000000000000000000611307565b90505b90565b610fb96109c0565b73ffffffffffffffffffffffffffffffffffffffff16610fd761061d565b73ffffffffffffffffffffffffffffffffffffffff161461102d576040517f08c379a000000000000000000000000000000000000000000000000000000000815260040161102490611d7f565b60405180910390fd5b565b600073ffffffffffffffffffffffffffffffffffffffff168273ffffffffffffffffffffffffffffffffffffffff16141561109f576040517f08c379a000000000000000000000000000000000000000000000000000000000815260040161109690611dff565b60405180910390fd5b6110ab600083836112fd565b80600260008282546110bd9190611e7c565b92505081905550806000808473ffffffffffffffffffffffffffffffffffffffff1673ffffffffffffffffffffffffffffffffffffffff168152602001908152602001600020600082825401925050819055508173ffffffffffffffffffffffffffffffffffffffff16600073ffffffffffffffffffffffffffffffffffffffff167fddf252ad1be2c89b69c2b068fc378daa952ba7f163c4a11628f55a4df523b3ef8360405161116e9190611e1f565b60405180910390a361118260008383611302565b5050565b6000600760009054906101000a900473ffffffffffffffffffffffffffffffffffffffff16905081600760006101000a81548173ffffffffffffffffffffffffffffffffffffffff021916908373ffffffffffffffffffffffffffffffffffffffff1602179055508173ffffffffffffffffffffffffffffffffffffffff168173ffffffffffffffffffffffffffffffffffffffff167f8be0079c531659141344cd1fd0a4f28419497f9722a3daafe3b4186f6b6457e060405160405180910390a35050565b600081600001549050919050565b600080600560008473ffffffffffffffffffffffffffffffffffffffff1673ffffffffffffffffffffffffffffffffffffffff16815260200190815260200160002090506112a78161124c565b91506112b281611341565b50919050565b60006112cb6112c5610e97565b83611357565b9050919050565b60008060006112e38787878761138a565b915091506112f08161146d565b8192505050949350505050565b505050565b505050565b60008383834630604051602001611322959493929190611b85565b6040516020818303038152906040528051906020012090509392505050565b6001816000016000828254019250508190555050565b6000828260405160200161136c929190611a9c565b60405160208183030381529060405280519060200120905092915050565b6000807f7fffffffffffffffffffffffffffffff5d576e7357a4501ddfe92f46681b20a08360001c11156113c5576000600391509150611464565b6000600187878787604051600081526020016040526040516113ea9493929190611bd8565b6020604051602081039080840390855afa15801561140c573d6000803e3d6000fd5b505050602060405103519050600073ffffffffffffffffffffffffffffffffffffffff168173ffffffffffffffffffffffffffffffffffffffff16141561145b57600060019250925050611464565b80600092509250505b94509492505050565b600060048111156114815761148061219a565b5b8160048111156114945761149361219a565b5b141561149f576115d8565b600160048111156114b3576114b261219a565b5b8160048111156114c6576114c561219a565b5b1415611507576040517f08c379a00000000000000000000000000000000000000000000000000000000081526004016114fe90611c3f565b60405180910390fd5b6002600481111561151b5761151a61219a565b5b81600481111561152e5761152d61219a565b5b141561156f576040517f08c379a000000000000000000000000000000000000000000000000000000000815260040161156690611c7f565b60405180910390fd5b600360048111156115835761158261219a565b5b8160048111156115965761159561219a565b5b14156115d7576040517f08c379a00000000000000000000000000000000000000000000000000000000081526004016115ce90611d3f565b60405180910390fd5b5b50565b6000813590506115ea816125db565b92915050565b6000813590506115ff816125f2565b92915050565b60008135905061161481612609565b92915050565b60008135905061162981612620565b92915050565b600060208284031215611645576116446121f8565b5b6000611653848285016115db565b91505092915050565b60008060408385031215611673576116726121f8565b5b6000611681858286016115db565b9250506020611692858286016115db565b9150509250929050565b6000806000606084860312156116b5576116b46121f8565b5b60006116c3868287016115db565b93505060206116d4868287016115db565b92505060406116e586828701611605565b9150509250925092565b600080600080600080600060e0888a03121561170e5761170d6121f8565b5b600061171c8a828b016115db565b975050602061172d8a828b016115db565b965050604061173e8a828b01611605565b955050606061174f8a828b01611605565b94505060806117608a828b0161161a565b93505060a06117718a828b016115f0565b92505060c06117828a828b016115f0565b91505092959891949750929550565b600080604083850312156117a8576117a76121f8565b5b60006117b6858286016115db565b92505060206117c785828601611605565b9150509250929050565b6117da8161209d565b82525050565b6117e9816120af565b82525050565b6117f8816120bb565b82525050565b61180f61180a826120bb565b612161565b82525050565b600061182082611e55565b61182a8185611e60565b935061183a8185602086016120fc565b611843816121fd565b840191505092915050565b600061185b601883611e60565b91506118668261221b565b602082019050919050565b600061187e602383611e60565b915061188982612244565b604082019050919050565b60006118a1601f83611e60565b91506118ac82612293565b602082019050919050565b60006118c4602683611e60565b91506118cf826122bc565b604082019050919050565b60006118e7602283611e60565b91506118f28261230b565b604082019050919050565b600061190a600283611e71565b91506119158261235a565b600282019050919050565b600061192d601d83611e60565b915061193882612383565b602082019050919050565b6000611950601d83611e60565b915061195b826123ac565b602082019050919050565b6000611973602683611e60565b915061197e826123d5565b604082019050919050565b6000611996602283611e60565b91506119a182612424565b604082019050919050565b60006119b9601e83611e60565b91506119c482612473565b602082019050919050565b60006119dc602083611e60565b91506119e78261249c565b602082019050919050565b60006119ff602583611e60565b9150611a0a826124c5565b604082019050919050565b6000611a22602483611e60565b9150611a2d82612514565b604082019050919050565b6000611a45602583611e60565b9150611a5082612563565b604082019050919050565b6000611a68601f83611e60565b9150611a73826125b2565b602082019050919050565b611a87816120e5565b82525050565b611a96816120ef565b82525050565b6000611aa7826118fd565b9150611ab382856117fe565b602082019150611ac382846117fe565b6020820191508190509392505050565b6000602082019050611ae860008301846117d1565b92915050565b6000602082019050611b0360008301846117e0565b92915050565b6000602082019050611b1e60008301846117ef565b92915050565b600060c082019050611b3960008301896117ef565b611b4660208301886117d1565b611b5360408301876117d1565b611b606060830186611a7e565b611b6d6080830185611a7e565b611b7a60a0830184611a7e565b979650505050505050565b600060a082019050611b9a60008301886117ef565b611ba760208301876117ef565b611bb460408301866117ef565b611bc16060830185611a7e565b611bce60808301846117d1565b9695505050505050565b6000608082019050611bed60008301876117ef565b611bfa6020830186611a8d565b611c0760408301856117ef565b611c1460608301846117ef565b95945050505050565b60006020820190508181036000830152611c378184611815565b905092915050565b60006020820190508181036000830152611c588161184e565b9050919050565b60006020820190508181036000830152611c7881611871565b9050919050565b60006020820190508181036000830152611c9881611894565b9050919050565b60006020820190508181036000830152611cb8816118b7565b9050919050565b60006020820190508181036000830152611cd8816118da565b9050919050565b60006020820190508181036000830152611cf881611920565b9050919050565b60006020820190508181036000830152611d1881611943565b9050919050565b60006020820190508181036000830152611d3881611966565b9050919050565b60006020820190508181036000830152611d5881611989565b9050919050565b60006020820190508181036000830152611d78816119ac565b9050919050565b60006020820190508181036000830152611d98816119cf565b9050919050565b60006020820190508181036000830152611db8816119f2565b9050919050565b60006020820190508181036000830152611dd881611a15565b9050919050565b60006020820190508181036000830152611df881611a38565b9050919050565b60006020820190508181036000830152611e1881611a5b565b9050919050565b6000602082019050611e346000830184611a7e565b92915050565b6000602082019050611e4f6000830184611a8d565b92915050565b600081519050919050565b600082825260208201905092915050565b600081905092915050565b6000611e87826120e5565b9150611e92836120e5565b9250827fffffffffffffffffffffffffffffffffffffffffffffffffffffffffffffffff03821115611ec757611ec661216b565b5b828201905092915050565b6000808291508390505b6001851115611f1c57808604811115611ef857611ef761216b565b5b6001851615611f075780820291505b8081029050611f158561220e565b9450611edc565b94509492505050565b6000611f30826120e5565b9150611f3b836120ef565b9250611f687fffffffffffffffffffffffffffffffffffffffffffffffffffffffffffffffff8484611f70565b905092915050565b600082611f80576001905061203c565b81611f8e576000905061203c565b8160018114611fa45760028114611fae57611fdd565b600191505061203c565b60ff841115611fc057611fbf61216b565b5b8360020a915084821115611fd757611fd661216b565b5b5061203c565b5060208310610133831016604e8410600b84101617156120125782820a90508381111561200d5761200c61216b565b5b61203c565b61201f8484846001611ed2565b925090508184048111156120365761203561216b565b5b81810290505b9392505050565b600061204e826120e5565b9150612059836120e5565b9250817fffffffffffffffffffffffffffffffffffffffffffffffffffffffffffffffff04831182151516156120925761209161216b565b5b828202905092915050565b60006120a8826120c5565b9050919050565b60008115159050919050565b6000819050919050565b600073ffffffffffffffffffffffffffffffffffffffff82169050919050565b6000819050919050565b600060ff82169050919050565b60005b8381101561211a5780820151818401526020810190506120ff565b83811115612129576000848401525b50505050565b6000600282049050600182168061214757607f821691505b6020821081141561215b5761215a6121c9565b5b50919050565b6000819050919050565b7f4e487b7100000000000000000000000000000000000000000000000000000000600052601160045260246000fd5b7f4e487b7100000000000000000000000000000000000000000000000000000000600052602160045260246000fd5b7f4e487b7100000000000000000000000000000000000000000000000000000000600052602260045260246000fd5b600080fd5b6000601f19601f8301169050919050565b60008160011c9050919050565b7f45434453413a20696e76616c6964207369676e61747572650000000000000000600082015250565b7f45524332303a207472616e7366657220746f20746865207a65726f206164647260008201527f6573730000000000000000000000000000000000000000000000000000000000602082015250565b7f45434453413a20696e76616c6964207369676e6174757265206c656e67746800600082015250565b7f4f776e61626c653a206e6577206f776e657220697320746865207a65726f206160008201527f6464726573730000000000000000000000000000000000000000000000000000602082015250565b7f45524332303a20617070726f766520746f20746865207a65726f20616464726560008201527f7373000000000000000000000000000000000000000000000000000000000000602082015250565b7f1901000000000000000000000000000000000000000000000000000000000000600082015250565b7f45524332303a20696e73756666696369656e7420616c6c6f77616e6365000000600082015250565b7f45524332305065726d69743a206578706972656420646561646c696e65000000600082015250565b7f45524332303a207472616e7366657220616d6f756e742065786365656473206260008201527f616c616e63650000000000000000000000000000000000000000000000000000602082015250565b7f45434453413a20696e76616c6964207369676e6174757265202773272076616c60008201527f7565000000000000000000000000000000000000000000000000000000000000602082015250565b7f45524332305065726d69743a20696e76616c6964207369676e61747572650000600082015250565b7f4f776e61626c653a2063616c6c6572206973206e6f7420746865206f776e6572600082015250565b7f45524332303a207472616e736665722066726f6d20746865207a65726f20616460008201527f6472657373000000000000000000000000000000000000000000000000000000602082015250565b7f45524332303a20617070726f76652066726f6d20746865207a65726f2061646460008201527f7265737300000000000000000000000000000000000000000000000000000000602082015250565b7f45524332303a2064656372656173656420616c6c6f77616e63652062656c6f7760008201527f207a65726f000000000000000000000000000000000000000000000000000000602082015250565b7f45524332303a206d696e7420746f20746865207a65726f206164647265737300600082015250565b6125e48161209d565b81146125ef57600080fd5b50565b6125fb816120bb565b811461260657600080fd5b50565b612612816120e5565b811461261d57600080fd5b50565b612629816120ef565b811461263457600080fd5b5056fea264697066735822122040eadc3313f94ba833c13623775a39e85f0676418c9413caa0155e91ff69d8f664736f6c63430008070033",
  "devdoc": {
    "author": "olaoye Salem",
    "details": "This contract inherits most of the functions from openzeppelin",
    "kind": "dev",
    "methods": {
      "DOMAIN_SEPARATOR()": {
        "details": "See {IERC20Permit-DOMAIN_SEPARATOR}."
      },
      "allowance(address,address)": {
        "details": "See {IERC20-allowance}."
      },
      "approve(address,uint256)": {
        "details": "See {IERC20-approve}. NOTE: If `amount` is the maximum `uint256`, the allowance is not updated on `transferFrom`. This is semantically equivalent to an infinite approval. Requirements: - `spender` cannot be the zero address."
      },
      "balanceOf(address)": {
        "details": "See {IERC20-balanceOf}."
      },
      "decimals()": {
        "details": "Returns the number of decimals used to get its user representation. For example, if `decimals` equals `2`, a balance of `505` tokens should be displayed to a user as `5.05` (`505 / 10 ** 2`). Tokens usually opt for a value of 18, imitating the relationship between Ether and Wei. This is the value {ERC20} uses, unless this function is overridden; NOTE: This information is only used for _display_ purposes: it in no way affects any of the arithmetic of the contract, including {IERC20-balanceOf} and {IERC20-transfer}."
      },
      "decreaseAllowance(address,uint256)": {
        "details": "Atomically decreases the allowance granted to `spender` by the caller. This is an alternative to {approve} that can be used as a mitigation for problems described in {IERC20-approve}. Emits an {Approval} event indicating the updated allowance. Requirements: - `spender` cannot be the zero address. - `spender` must have allowance for the caller of at least `subtractedValue`."
      },
      "increaseAllowance(address,uint256)": {
        "details": "Atomically increases the allowance granted to `spender` by the caller. This is an alternative to {approve} that can be used as a mitigation for problems described in {IERC20-approve}. Emits an {Approval} event indicating the updated allowance. Requirements: - `spender` cannot be the zero address."
      },
      "name()": {
        "details": "Returns the name of the token."
      },
      "nonces(address)": {
        "details": "See {IERC20Permit-nonces}."
      },
      "owner()": {
        "details": "Returns the address of the current owner."
      },
      "permit(address,address,uint256,uint256,uint8,bytes32,bytes32)": {
        "details": "See {IERC20Permit-permit}."
      },
      "renounceOwnership()": {
        "details": "Leaves the contract without owner. It will not be possible to call `onlyOwner` functions anymore. Can only be called by the current owner. NOTE: Renouncing ownership will leave the contract without an owner, thereby removing any functionality that is only available to the owner."
      },
      "symbol()": {
        "details": "Returns the symbol of the token, usually a shorter version of the name."
      },
      "totalSupply()": {
        "details": "See {IERC20-totalSupply}."
      },
      "transfer(address,uint256)": {
        "details": "See {IERC20-transfer}. Requirements: - `to` cannot be the zero address. - the caller must have a balance of at least `amount`."
      },
      "transferFrom(address,address,uint256)": {
        "details": "See {IERC20-transferFrom}. Emits an {Approval} event indicating the updated allowance. This is not required by the EIP. See the note at the beginning of {ERC20}. NOTE: Does not update the allowance if the current allowance is the maximum `uint256`. Requirements: - `from` and `to` cannot be the zero address. - `from` must have a balance of at least `amount`. - the caller must have allowance for ``from``'s tokens of at least `amount`."
      },
      "transferOwnership(address)": {
        "details": "Transfers ownership of the contract to a new account (`newOwner`). Can only be called by the current owner."
      }
    },
    "title": "GUST",
    "version": 1
  },
  "userdoc": {
    "kind": "user",
    "methods": {},
    "notice": "This Contract deploys GU$T as Gipper Labs  Token used  and allow only the owner to call _mint function This contract also implements the EIP 2612 permit , already ERC20 permit, which grant permission to others to spend their tokens in a single transaction.",
    "version": 1
  },
  "storageLayout": {
    "storage": [
      {
        "astId": 236,
        "contract": "contracts/GUST.sol:GUST",
        "label": "_balances",
        "offset": 0,
        "slot": "0",
        "type": "t_mapping(t_address,t_uint256)"
      },
      {
        "astId": 242,
        "contract": "contracts/GUST.sol:GUST",
        "label": "_allowances",
        "offset": 0,
        "slot": "1",
        "type": "t_mapping(t_address,t_mapping(t_address,t_uint256))"
      },
      {
        "astId": 244,
        "contract": "contracts/GUST.sol:GUST",
        "label": "_totalSupply",
        "offset": 0,
        "slot": "2",
        "type": "t_uint256"
      },
      {
        "astId": 246,
        "contract": "contracts/GUST.sol:GUST",
        "label": "_name",
        "offset": 0,
        "slot": "3",
        "type": "t_string_storage"
      },
      {
        "astId": 248,
        "contract": "contracts/GUST.sol:GUST",
        "label": "_symbol",
        "offset": 0,
        "slot": "4",
        "type": "t_string_storage"
      },
      {
        "astId": 1014,
        "contract": "contracts/GUST.sol:GUST",
        "label": "_nonces",
        "offset": 0,
        "slot": "5",
        "type": "t_mapping(t_address,t_struct(Counter)1227_storage)"
      },
      {
        "astId": 1022,
        "contract": "contracts/GUST.sol:GUST",
        "label": "_PERMIT_TYPEHASH_DEPRECATED_SLOT",
        "offset": 0,
        "slot": "6",
        "type": "t_bytes32"
      },
      {
        "astId": 7,
        "contract": "contracts/GUST.sol:GUST",
        "label": "_owner",
        "offset": 0,
        "slot": "7",
        "type": "t_address"
      }
    ],
    "types": {
      "t_address": {
        "encoding": "inplace",
        "label": "address",
        "numberOfBytes": "20"
      },
      "t_bytes32": {
        "encoding": "inplace",
        "label": "bytes32",
        "numberOfBytes": "32"
      },
      "t_mapping(t_address,t_mapping(t_address,t_uint256))": {
        "encoding": "mapping",
        "key": "t_address",
        "label": "mapping(address => mapping(address => uint256))",
        "numberOfBytes": "32",
        "value": "t_mapping(t_address,t_uint256)"
      },
      "t_mapping(t_address,t_struct(Counter)1227_storage)": {
        "encoding": "mapping",
        "key": "t_address",
        "label": "mapping(address => struct Counters.Counter)",
        "numberOfBytes": "32",
        "value": "t_struct(Counter)1227_storage"
      },
      "t_mapping(t_address,t_uint256)": {
        "encoding": "mapping",
        "key": "t_address",
        "label": "mapping(address => uint256)",
        "numberOfBytes": "32",
        "value": "t_uint256"
      },
      "t_string_storage": {
        "encoding": "bytes",
        "label": "string",
        "numberOfBytes": "32"
      },
      "t_struct(Counter)1227_storage": {
        "encoding": "inplace",
        "label": "struct Counters.Counter",
        "members": [
          {
            "astId": 1226,
            "contract": "contracts/GUST.sol:GUST",
            "label": "_value",
            "offset": 0,
            "slot": "0",
            "type": "t_uint256"
          }
        ],
        "numberOfBytes": "32"
      },
      "t_uint256": {
        "encoding": "inplace",
        "label": "uint256",
        "numberOfBytes": "32"
      }
    }
  }
}